{
    "_format": "hh-sol-artifact-1",
    "contractName": "DataStorage",
    "sourceName": "contracts/DataStorage.sol",
    "abi": [
        {
            "inputs": [],
            "name": "getData",
            "outputs": [
                {
                    "internalType": "string",
                    "name": "",
                    "type": "string"
                }
            ],
            "stateMutability": "view",
            "type": "function"
        },
        {
            "inputs": [
                {
                    "internalType": "string",
                    "name": "_data",
                    "type": "string"
                }
            ],
            "name": "setData",
            "outputs": [],
            "stateMutability": "nonpayable",
            "type": "function"
        }
    ],
    "bytecode": "0x6080604052348015600f57600080fd5b506105e18061001f6000396000f3fe608060405234801561001057600080fd5b50600436106100365760003560e01c80633bc5de301461003b57806347064d6a14610059575b600080fd5b610043610075565b60405161005091906101ad565b60405180910390f35b610073600480360381019061006e919061023e565b610107565b005b606060008054610084906102ba565b80601f01602080910402602001604051908101604052809291908181526020018280546100b0906102ba565b80156100fd5780601f106100d2576101008083540402835291602001916100fd565b820191906000526020600020905b8154815290600101906020018083116100e057829003601f168201915b5050505050905090565b8181600091826101189291906104db565b505050565b600081519050919050565b600082825260208201905092915050565b60005b8381101561015757808201518184015260208101905061013c565b60008484015250505050565b6000601f19601f8301169050919050565b600061017f8261011d565b6101898185610128565b9350610199818560208601610139565b6101a281610163565b840191505092915050565b600060208201905081810360008301526101c78184610174565b905092915050565b600080fd5b600080fd5b600080fd5b600080fd5b600080fd5b60008083601f8401126101fe576101fd6101d9565b5b8235905067ffffffffffffffff81111561021b5761021a6101de565b5b602083019150836001820283011115610237576102366101e3565b5b9250929050565b60008060208385031215610255576102546101cf565b5b600083013567ffffffffffffffff811115610273576102726101d4565b5b61027f858286016101e8565b92509250509250929050565b7f4e487b7100000000000000000000000000000000000000000000000000000000600052602260045260246000fd5b600060028204905060018216806102d257607f821691505b6020821081036102e5576102e461028b565b5b50919050565b600082905092915050565b7f4e487b7100000000000000000000000000000000000000000000000000000000600052604160045260246000fd5b60008190508160005260206000209050919050565b60006020601f8301049050919050565b600082821b905092915050565b6000600883026103877fffffffffffffffffffffffffffffffffffffffffffffffffffffffffffffffff8261034a565b610391868361034a565b95508019841693508086168417925050509392505050565b6000819050919050565b6000819050919050565b60006103d86103d36103ce846103a9565b6103b3565b6103a9565b9050919050565b6000819050919050565b6103f2836103bd565b6104066103fe826103df565b848454610357565b825550505050565b600090565b61041b61040e565b6104268184846103e9565b505050565b5b8181101561044a5761043f600082610413565b60018101905061042c565b5050565b601f82111561048f5761046081610325565b6104698461033a565b81016020851015610478578190505b61048c6104848561033a565b83018261042b565b50505b505050565b600082821c905092915050565b60006104b260001984600802610494565b1980831691505092915050565b60006104cb83836104a1565b9150826002028217905092915050565b6104e583836102eb565b67ffffffffffffffff8111156104fe576104fd6102f6565b5b61050882546102ba565b61051382828561044e565b6000601f8311600181146105425760008415610530578287013590505b61053a85826104bf565b8655506105a2565b601f19841661055086610325565b60005b8281101561057857848901358255600182019150602085019450602081019050610553565b868310156105955784890135610591601f8916826104a1565b8355505b6001600288020188555050505b5050505050505056fea26469706673582212200a85787f982e5dba269450fdbe1a626fbbeb52ddcef65c3211aa404a6e17a02464736f6c634300081b0033",
    "linkReferences": {},
    "deployedLinkReferences": {}
}