{
  "_format": "hh-sol-artifact-1",
  "contractName": "DataStorage",
  "sourceName": "contracts/DataStorage.sol",
  "abi": [
    {
      "inputs": [],
      "name": "data",
      "outputs": [
        {
          "internalType": "uint256",
          "name": "",
          "type": "uint256"
        }
      ],
      "stateMutability": "view",
      "type": "function"
    },
    {
      "inputs": [],
      "name": "getImageHash",
      "outputs": [
        {
          "internalType": "string",
          "name": "",
          "type": "string"
        }
      ],
      "stateMutability": "view",
      "type": "function"
    },
    {
      "inputs": [],
      "name": "imageHash",
      "outputs": [
        {
          "internalType": "string",
          "name": "",
          "type": "string"
        }
      ],
      "stateMutability": "view",
      "type": "function"
    },
    {
      "inputs": [],
      "name": "retrieveData",
      "outputs": [
        {
          "internalType": "uint256",
          "name": "",
          "type": "uint256"
        }
      ],
      "stateMutability": "view",
      "type": "function"
    },
    {
      "inputs": [
        {
          "internalType": "uint256",
          "name": "_data",
          "type": "uint256"
        }
      ],
      "name": "setData",
      "outputs": [],
      "stateMutability": "nonpayable",
      "type": "function"
    },
    {
      "inputs": [
        {
          "internalType": "string",
          "name": "_imageHash",
          "type": "string"
        }
      ],
      "name": "setImageHash",
      "outputs": [],
      "stateMutability": "nonpayable",
      "type": "function"
    }
  ],
  "bytecode": "0x6080604052348015600f57600080fd5b506108488061001f6000396000f3fe608060405234801561001057600080fd5b50600436106100625760003560e01c806304299b2a146100675780632c695e661461008357806351605d80146100a157806351e0556d146100bf5780635b4b73a9146100dd57806373d4a13a146100f9575b600080fd5b610081600480360381019061007c91906103bd565b610117565b005b61008b61012a565b6040516100989190610485565b60405180910390f35b6100a96101bc565b6040516100b69190610485565b60405180910390f35b6100c761024a565b6040516100d491906104c0565b60405180910390f35b6100f760048036038101906100f29190610507565b610253565b005b61010161025d565b60405161010e91906104c0565b60405180910390f35b80600190816101269190610740565b5050565b60606001805461013990610563565b80601f016020809104026020016040519081016040528092919081815260200182805461016590610563565b80156101b25780601f10610187576101008083540402835291602001916101b2565b820191906000526020600020905b81548152906001019060200180831161019557829003601f168201915b5050505050905090565b600180546101c990610563565b80601f01602080910402602001604051908101604052809291908181526020018280546101f590610563565b80156102425780601f1061021757610100808354040283529160200191610242565b820191906000526020600020905b81548152906001019060200180831161022557829003601f168201915b505050505081565b60008054905090565b8060008190555050565b60005481565b6000604051905090565b600080fd5b600080fd5b600080fd5b600080fd5b6000601f19601f8301169050919050565b7f4e487b7100000000000000000000000000000000000000000000000000000000600052604160045260246000fd5b6102ca82610281565b810181811067ffffffffffffffff821117156102e9576102e8610292565b5b80604052505050565b60006102fc610263565b905061030882826102c1565b919050565b600067ffffffffffffffff82111561032857610327610292565b5b61033182610281565b9050602081019050919050565b82818337600083830152505050565b600061036061035b8461030d565b6102f2565b90508281526020810184848401111561037c5761037b61027c565b5b61038784828561033e565b509392505050565b600082601f8301126103a4576103a3610277565b5b81356103b484826020860161034d565b91505092915050565b6000602082840312156103d3576103d261026d565b5b600082013567ffffffffffffffff8111156103f1576103f0610272565b5b6103fd8482850161038f565b91505092915050565b600081519050919050565b600082825260208201905092915050565b60005b83811015610440578082015181840152602081019050610425565b60008484015250505050565b600061045782610406565b6104618185610411565b9350610471818560208601610422565b61047a81610281565b840191505092915050565b6000602082019050818103600083015261049f818461044c565b905092915050565b6000819050919050565b6104ba816104a7565b82525050565b60006020820190506104d560008301846104b1565b92915050565b6104e4816104a7565b81146104ef57600080fd5b50565b600081359050610501816104db565b92915050565b60006020828403121561051d5761051c61026d565b5b600061052b848285016104f2565b91505092915050565b7f4e487b7100000000000000000000000000000000000000000000000000000000600052602260045260246000fd5b6000600282049050600182168061057b57607f821691505b60208210810361058e5761058d610534565b5b50919050565b60008190508160005260206000209050919050565b60006020601f8301049050919050565b600082821b905092915050565b6000600883026105f67fffffffffffffffffffffffffffffffffffffffffffffffffffffffffffffffff826105b9565b61060086836105b9565b95508019841693508086168417925050509392505050565b6000819050919050565b600061063d610638610633846104a7565b610618565b6104a7565b9050919050565b6000819050919050565b61065783610622565b61066b61066382610644565b8484546105c6565b825550505050565b600090565b610680610673565b61068b81848461064e565b505050565b5b818110156106af576106a4600082610678565b600181019050610691565b5050565b601f8211156106f4576106c581610594565b6106ce846105a9565b810160208510156106dd578190505b6106f16106e9856105a9565b830182610690565b50505b505050565b600082821c905092915050565b6000610717600019846008026106f9565b1980831691505092915050565b60006107308383610706565b9150826002028217905092915050565b61074982610406565b67ffffffffffffffff81111561076257610761610292565b5b61076c8254610563565b6107778282856106b3565b600060209050601f8311600181146107aa5760008415610798578287015190505b6107a28582610724565b86555061080a565b601f1984166107b886610594565b60005b828110156107e0578489015182556001820191506020850194506020810190506107bb565b868310156107fd57848901516107f9601f891682610706565b8355505b6001600288020188555050505b50505050505056fea2646970667358221220810aeda2e1ff7c2870ee7d77c00b9e07f35bed81217e2f8ec17622fe17438bd664736f6c634300081b0033",
  "linkReferences": {},
  "deployedLinkReferences": {}
}