{
  "_format": "hh-sol-artifact-1",
  "contractName": "DataStorage",
  "sourceName": "contracts/DataStorage.sol",
  "abi": [
    {
      "inputs": [],
      "name": "getData",
      "outputs": [
        {
          "internalType": "string",
          "name": "",
          "type": "string"
        }
      ],
      "stateMutability": "view",
      "type": "function"
    },
    {
      "inputs": [],
      "name": "retrieveData",
      "outputs": [
        {
          "internalType": "bytes4",
          "name": "",
          "type": "bytes4"
        }
      ],
      "stateMutability": "view",
      "type": "function"
    },
    {
      "inputs": [
        {
          "internalType": "string",
          "name": "_data",
          "type": "string"
        }
      ],
      "name": "setData",
      "outputs": [],
      "stateMutability": "nonpayable",
      "type": "function"
    },
    {
      "inputs": [],
      "name": "storedData",
      "outputs": [
        {
          "internalType": "bytes4",
          "name": "",
          "type": "bytes4"
        }
      ],
      "stateMutability": "view",
      "type": "function"
    }
  ],
  "bytecode": "0x6080604052348015600f57600080fd5b506106b38061001f6000396000f3fe608060405234801561001057600080fd5b506004361061004c5760003560e01c80632a1afcd9146100515780633bc5de301461006f57806347064d6a1461008d57806351e0556d146100a9575b600080fd5b6100596100c7565b60405161006691906101d4565b60405180910390f35b6100776100da565b604051610084919061027f565b60405180910390f35b6100a760048036038101906100a29190610310565b61016c565b005b6100b1610182565b6040516100be91906101d4565b60405180910390f35b600160009054906101000a900460e01b81565b6060600080546100e99061038c565b80601f01602080910402602001604051908101604052809291908181526020018280546101159061038c565b80156101625780601f1061013757610100808354040283529160200191610162565b820191906000526020600020905b81548152906001019060200180831161014557829003601f168201915b5050505050905090565b81816000918261017d9291906105ad565b505050565b6000600160009054906101000a900460e01b905090565b60007fffffffff0000000000000000000000000000000000000000000000000000000082169050919050565b6101ce81610199565b82525050565b60006020820190506101e960008301846101c5565b92915050565b600081519050919050565b600082825260208201905092915050565b60005b8381101561022957808201518184015260208101905061020e565b60008484015250505050565b6000601f19601f8301169050919050565b6000610251826101ef565b61025b81856101fa565b935061026b81856020860161020b565b61027481610235565b840191505092915050565b600060208201905081810360008301526102998184610246565b905092915050565b600080fd5b600080fd5b600080fd5b600080fd5b600080fd5b60008083601f8401126102d0576102cf6102ab565b5b8235905067ffffffffffffffff8111156102ed576102ec6102b0565b5b602083019150836001820283011115610309576103086102b5565b5b9250929050565b60008060208385031215610327576103266102a1565b5b600083013567ffffffffffffffff811115610345576103446102a6565b5b610351858286016102ba565b92509250509250929050565b7f4e487b7100000000000000000000000000000000000000000000000000000000600052602260045260246000fd5b600060028204905060018216806103a457607f821691505b6020821081036103b7576103b661035d565b5b50919050565b600082905092915050565b7f4e487b7100000000000000000000000000000000000000000000000000000000600052604160045260246000fd5b60008190508160005260206000209050919050565b60006020601f8301049050919050565b600082821b905092915050565b6000600883026104597fffffffffffffffffffffffffffffffffffffffffffffffffffffffffffffffff8261041c565b610463868361041c565b95508019841693508086168417925050509392505050565b6000819050919050565b6000819050919050565b60006104aa6104a56104a08461047b565b610485565b61047b565b9050919050565b6000819050919050565b6104c48361048f565b6104d86104d0826104b1565b848454610429565b825550505050565b600090565b6104ed6104e0565b6104f88184846104bb565b505050565b5b8181101561051c576105116000826104e5565b6001810190506104fe565b5050565b601f82111561056157610532816103f7565b61053b8461040c565b8101602085101561054a578190505b61055e6105568561040c565b8301826104fd565b50505b505050565b600082821c905092915050565b600061058460001984600802610566565b1980831691505092915050565b600061059d8383610573565b9150826002028217905092915050565b6105b783836103bd565b67ffffffffffffffff8111156105d0576105cf6103c8565b5b6105da825461038c565b6105e5828285610520565b6000601f8311600181146106145760008415610602578287013590505b61060c8582610591565b865550610674565b601f198416610622866103f7565b60005b8281101561064a57848901358255600182019150602085019450602081019050610625565b868310156106675784890135610663601f891682610573565b8355505b6001600288020188555050505b5050505050505056fea2646970667358221220e6de1a091f4b336ff51b89af8360a2e4c12387157fba492162be0f768726894964736f6c634300081b0033",
  "linkReferences": {},
  "deployedLinkReferences": {}
}