{
  "_format": "hh-sol-artifact-1",
  "contractName": "DataStorage",
  "sourceName": "contracts/DataStorage.sol",
  "abi": [
    {
      "inputs": [],
      "name": "data",
      "outputs": [
        {
          "internalType": "uint256",
          "name": "",
          "type": "uint256"
        }
      ],
      "stateMutability": "view",
      "type": "function"
    },
    {
      "inputs": [],
      "name": "getImageHash",
      "outputs": [
        {
          "internalType": "string",
          "name": "",
          "type": "string"
        }
      ],
      "stateMutability": "view",
      "type": "function"
    },
    {
      "inputs": [],
      "name": "imageHash",
      "outputs": [
        {
          "internalType": "string",
          "name": "",
          "type": "string"
        }
      ],
      "stateMutability": "view",
      "type": "function"
    },
    {
      "inputs": [],
      "name": "retrieveData",
      "outputs": [
        {
          "internalType": "uint256",
          "name": "",
          "type": "uint256"
        }
      ],
      "stateMutability": "view",
      "type": "function"
    },
    {
      "inputs": [
        {
          "internalType": "address payable",
          "name": "_to",
          "type": "address"
        }
      ],
      "name": "setData",
      "outputs": [],
      "stateMutability": "payable",
      "type": "function"
    },
    {
      "inputs": [
        {
          "internalType": "string",
          "name": "_imageHash",
          "type": "string"
        }
      ],
      "name": "setImageHash",
      "outputs": [],
      "stateMutability": "nonpayable",
      "type": "function"
    }
  ],
  "bytecode": "0x6080604052348015600f57600080fd5b5061099d8061001f6000396000f3fe6080604052600436106100555760003560e01c806304299b2a1461005a5780632c695e661461008357806351605d80146100ae57806351e0556d146100d957806361dfdae61461010457806373d4a13a14610120575b600080fd5b34801561006657600080fd5b50610081600480360381019061007c9190610474565b61014b565b005b34801561008f57600080fd5b5061009861015e565b6040516100a5919061053c565b60405180910390f35b3480156100ba57600080fd5b506100c36101f0565b6040516100d0919061053c565b60405180910390f35b3480156100e557600080fd5b506100ee61027e565b6040516100fb9190610577565b60405180910390f35b61011e600480360381019061011991906105f0565b610287565b005b34801561012c57600080fd5b50610135610314565b6040516101429190610577565b60405180910390f35b806001908161015a9190610829565b5050565b60606001805461016d9061064c565b80601f01602080910402602001604051908101604052809291908181526020018280546101999061064c565b80156101e65780601f106101bb576101008083540402835291602001916101e6565b820191906000526020600020905b8154815290600101906020018083116101c957829003601f168201915b5050505050905090565b600180546101fd9061064c565b80601f01602080910402602001604051908101604052809291908181526020018280546102299061064c565b80156102765780601f1061024b57610100808354040283529160200191610276565b820191906000526020600020905b81548152906001019060200180831161025957829003601f168201915b505050505081565b60008054905090565b600034116102ca576040517f08c379a00000000000000000000000000000000000000000000000000000000081526004016102c190610947565b60405180910390fd5b8073ffffffffffffffffffffffffffffffffffffffff166108fc349081150290604051600060405180830381858888f19350505050158015610310573d6000803e3d6000fd5b5050565b60005481565b6000604051905090565b600080fd5b600080fd5b600080fd5b600080fd5b6000601f19601f8301169050919050565b7f4e487b7100000000000000000000000000000000000000000000000000000000600052604160045260246000fd5b61038182610338565b810181811067ffffffffffffffff821117156103a05761039f610349565b5b80604052505050565b60006103b361031a565b90506103bf8282610378565b919050565b600067ffffffffffffffff8211156103df576103de610349565b5b6103e882610338565b9050602081019050919050565b82818337600083830152505050565b6000610417610412846103c4565b6103a9565b90508281526020810184848401111561043357610432610333565b5b61043e8482856103f5565b509392505050565b600082601f83011261045b5761045a61032e565b5b813561046b848260208601610404565b91505092915050565b60006020828403121561048a57610489610324565b5b600082013567ffffffffffffffff8111156104a8576104a7610329565b5b6104b484828501610446565b91505092915050565b600081519050919050565b600082825260208201905092915050565b60005b838110156104f75780820151818401526020810190506104dc565b60008484015250505050565b600061050e826104bd565b61051881856104c8565b93506105288185602086016104d9565b61053181610338565b840191505092915050565b600060208201905081810360008301526105568184610503565b905092915050565b6000819050919050565b6105718161055e565b82525050565b600060208201905061058c6000830184610568565b92915050565b600073ffffffffffffffffffffffffffffffffffffffff82169050919050565b60006105bd82610592565b9050919050565b6105cd816105b2565b81146105d857600080fd5b50565b6000813590506105ea816105c4565b92915050565b60006020828403121561060657610605610324565b5b6000610614848285016105db565b91505092915050565b7f4e487b7100000000000000000000000000000000000000000000000000000000600052602260045260246000fd5b6000600282049050600182168061066457607f821691505b6020821081036106775761067661061d565b5b50919050565b60008190508160005260206000209050919050565b60006020601f8301049050919050565b600082821b905092915050565b6000600883026106df7fffffffffffffffffffffffffffffffffffffffffffffffffffffffffffffffff826106a2565b6106e986836106a2565b95508019841693508086168417925050509392505050565b6000819050919050565b600061072661072161071c8461055e565b610701565b61055e565b9050919050565b6000819050919050565b6107408361070b565b61075461074c8261072d565b8484546106af565b825550505050565b600090565b61076961075c565b610774818484610737565b505050565b5b818110156107985761078d600082610761565b60018101905061077a565b5050565b601f8211156107dd576107ae8161067d565b6107b784610692565b810160208510156107c6578190505b6107da6107d285610692565b830182610779565b50505b505050565b600082821c905092915050565b6000610800600019846008026107e2565b1980831691505092915050565b600061081983836107ef565b9150826002028217905092915050565b610832826104bd565b67ffffffffffffffff81111561084b5761084a610349565b5b610855825461064c565b61086082828561079c565b600060209050601f8311600181146108935760008415610881578287015190505b61088b858261080d565b8655506108f3565b601f1984166108a18661067d565b60005b828110156108c9578489015182556001820191506020850194506020810190506108a4565b868310156108e657848901516108e2601f8916826107ef565b8355505b6001600288020188555050505b505050505050565b7f53656e64206120706f73697469766520616d6f756e74206f6620455448000000600082015250565b6000610931601d836104c8565b915061093c826108fb565b602082019050919050565b6000602082019050818103600083015261096081610924565b905091905056fea264697066735822122027d25e3b33dc7d388c78b35f685a2a1d9215fe4444692e4f92c9a3cb5a07af5264736f6c634300081b0033",
  "linkReferences": {},
  "deployedLinkReferences": {}
}