{
  "_format": "hh-sol-artifact-1",
  "contractName": "DataStorage",
  "sourceName": "contracts/DataStorage.sol",
  "abi": [
    {
      "inputs": [],
      "name": "data",
      "outputs": [
        {
          "internalType": "int256",
          "name": "",
          "type": "int256"
        }
      ],
      "stateMutability": "view",
      "type": "function"
    },
    {
      "inputs": [],
      "name": "getImageHash",
      "outputs": [
        {
          "internalType": "string",
          "name": "",
          "type": "string"
        }
      ],
      "stateMutability": "view",
      "type": "function"
    },
    {
      "inputs": [],
      "name": "imageHash",
      "outputs": [
        {
          "internalType": "string",
          "name": "",
          "type": "string"
        }
      ],
      "stateMutability": "view",
      "type": "function"
    },
    {
      "inputs": [],
      "name": "retrieveData",
      "outputs": [
        {
          "internalType": "int256",
          "name": "",
          "type": "int256"
        }
      ],
      "stateMutability": "view",
      "type": "function"
    },
    {
      "inputs": [
        {
          "internalType": "int256",
          "name": "_data",
          "type": "int256"
        },
        {
          "internalType": "address payable",
          "name": "_to",
          "type": "address"
        }
      ],
      "name": "setData",
      "outputs": [],
      "stateMutability": "payable",
      "type": "function"
    },
    {
      "inputs": [
        {
          "internalType": "string",
          "name": "_imageHash",
          "type": "string"
        }
      ],
      "name": "setImageHash",
      "outputs": [],
      "stateMutability": "nonpayable",
      "type": "function"
    }
  ],
  "bytecode": "0x6080604052348015600f57600080fd5b506109ee8061001f6000396000f3fe6080604052600436106100555760003560e01c806304299b2a1461005a5780632c695e66146100835780632ee74d8c146100ae57806351605d80146100ca57806351e0556d146100f557806373d4a13a14610120575b600080fd5b34801561006657600080fd5b50610081600480360381019061007c919061047c565b61014b565b005b34801561008f57600080fd5b5061009861015e565b6040516100a59190610544565b60405180910390f35b6100c860048036038101906100c391906105fa565b6101f0565b005b3480156100d657600080fd5b506100df610285565b6040516100ec9190610544565b60405180910390f35b34801561010157600080fd5b5061010a610313565b6040516101179190610649565b60405180910390f35b34801561012c57600080fd5b5061013561031c565b6040516101429190610649565b60405180910390f35b806001908161015a919061087a565b5050565b60606001805461016d90610693565b80601f016020809104026020016040519081016040528092919081815260200182805461019990610693565b80156101e65780601f106101bb576101008083540402835291602001916101e6565b820191906000526020600020905b8154815290600101906020018083116101c957829003601f168201915b5050505050905090565b816000819055506000341161023a576040517f08c379a000000000000000000000000000000000000000000000000000000000815260040161023190610998565b60405180910390fd5b8073ffffffffffffffffffffffffffffffffffffffff166108fc349081150290604051600060405180830381858888f19350505050158015610280573d6000803e3d6000fd5b505050565b6001805461029290610693565b80601f01602080910402602001604051908101604052809291908181526020018280546102be90610693565b801561030b5780601f106102e05761010080835404028352916020019161030b565b820191906000526020600020905b8154815290600101906020018083116102ee57829003601f168201915b505050505081565b60008054905090565b60005481565b6000604051905090565b600080fd5b600080fd5b600080fd5b600080fd5b6000601f19601f8301169050919050565b7f4e487b7100000000000000000000000000000000000000000000000000000000600052604160045260246000fd5b61038982610340565b810181811067ffffffffffffffff821117156103a8576103a7610351565b5b80604052505050565b60006103bb610322565b90506103c78282610380565b919050565b600067ffffffffffffffff8211156103e7576103e6610351565b5b6103f082610340565b9050602081019050919050565b82818337600083830152505050565b600061041f61041a846103cc565b6103b1565b90508281526020810184848401111561043b5761043a61033b565b5b6104468482856103fd565b509392505050565b600082601f83011261046357610462610336565b5b813561047384826020860161040c565b91505092915050565b6000602082840312156104925761049161032c565b5b600082013567ffffffffffffffff8111156104b0576104af610331565b5b6104bc8482850161044e565b91505092915050565b600081519050919050565b600082825260208201905092915050565b60005b838110156104ff5780820151818401526020810190506104e4565b60008484015250505050565b6000610516826104c5565b61052081856104d0565b93506105308185602086016104e1565b61053981610340565b840191505092915050565b6000602082019050818103600083015261055e818461050b565b905092915050565b6000819050919050565b61057981610566565b811461058457600080fd5b50565b60008135905061059681610570565b92915050565b600073ffffffffffffffffffffffffffffffffffffffff82169050919050565b60006105c78261059c565b9050919050565b6105d7816105bc565b81146105e257600080fd5b50565b6000813590506105f4816105ce565b92915050565b600080604083850312156106115761061061032c565b5b600061061f85828601610587565b9250506020610630858286016105e5565b9150509250929050565b61064381610566565b82525050565b600060208201905061065e600083018461063a565b92915050565b7f4e487b7100000000000000000000000000000000000000000000000000000000600052602260045260246000fd5b600060028204905060018216806106ab57607f821691505b6020821081036106be576106bd610664565b5b50919050565b60008190508160005260206000209050919050565b60006020601f8301049050919050565b600082821b905092915050565b6000600883026107267fffffffffffffffffffffffffffffffffffffffffffffffffffffffffffffffff826106e9565b61073086836106e9565b95508019841693508086168417925050509392505050565b6000819050919050565b6000819050919050565b600061077761077261076d84610748565b610752565b610748565b9050919050565b6000819050919050565b6107918361075c565b6107a561079d8261077e565b8484546106f6565b825550505050565b600090565b6107ba6107ad565b6107c5818484610788565b505050565b5b818110156107e9576107de6000826107b2565b6001810190506107cb565b5050565b601f82111561082e576107ff816106c4565b610808846106d9565b81016020851015610817578190505b61082b610823856106d9565b8301826107ca565b50505b505050565b600082821c905092915050565b600061085160001984600802610833565b1980831691505092915050565b600061086a8383610840565b9150826002028217905092915050565b610883826104c5565b67ffffffffffffffff81111561089c5761089b610351565b5b6108a68254610693565b6108b18282856107ed565b600060209050601f8311600181146108e457600084156108d2578287015190505b6108dc858261085e565b865550610944565b601f1984166108f2866106c4565b60005b8281101561091a578489015182556001820191506020850194506020810190506108f5565b868310156109375784890151610933601f891682610840565b8355505b6001600288020188555050505b505050505050565b7f53656e64206120706f73697469766520616d6f756e74206f6620455448000000600082015250565b6000610982601d836104d0565b915061098d8261094c565b602082019050919050565b600060208201905081810360008301526109b181610975565b905091905056fea2646970667358221220c42d8a443750abad409a7665a99a58d67f6cc32967a74e0d0f93aea113f9a2b864736f6c634300081b0033",
  "linkReferences": {},
  "deployedLinkReferences": {}
}