{
  "_format": "hh-sol-artifact-1",
  "contractName": "NftSign",
  "sourceName": "contracts/NftSign.sol",
  "abi": [
    {
      "inputs": [],
      "stateMutability": "nonpayable",
      "type": "constructor"
    },
    {
      "inputs": [
        {
          "internalType": "address",
          "name": "sender",
          "type": "address"
        },
        {
          "internalType": "uint256",
          "name": "tokenId",
          "type": "uint256"
        },
        {
          "internalType": "address",
          "name": "owner",
          "type": "address"
        }
      ],
      "name": "ERC721IncorrectOwner",
      "type": "error"
    },
    {
      "inputs": [
        {
          "internalType": "address",
          "name": "operator",
          "type": "address"
        },
        {
          "internalType": "uint256",
          "name": "tokenId",
          "type": "uint256"
        }
      ],
      "name": "ERC721InsufficientApproval",
      "type": "error"
    },
    {
      "inputs": [
        {
          "internalType": "address",
          "name": "approver",
          "type": "address"
        }
      ],
      "name": "ERC721InvalidApprover",
      "type": "error"
    },
    {
      "inputs": [
        {
          "internalType": "address",
          "name": "operator",
          "type": "address"
        }
      ],
      "name": "ERC721InvalidOperator",
      "type": "error"
    },
    {
      "inputs": [
        {
          "internalType": "address",
          "name": "owner",
          "type": "address"
        }
      ],
      "name": "ERC721InvalidOwner",
      "type": "error"
    },
    {
      "inputs": [
        {
          "internalType": "address",
          "name": "receiver",
          "type": "address"
        }
      ],
      "name": "ERC721InvalidReceiver",
      "type": "error"
    },
    {
      "inputs": [
        {
          "internalType": "address",
          "name": "sender",
          "type": "address"
        }
      ],
      "name": "ERC721InvalidSender",
      "type": "error"
    },
    {
      "inputs": [
        {
          "internalType": "uint256",
          "name": "tokenId",
          "type": "uint256"
        }
      ],
      "name": "ERC721NonexistentToken",
      "type": "error"
    },
    {
      "inputs": [
        {
          "internalType": "address",
          "name": "owner",
          "type": "address"
        }
      ],
      "name": "OwnableInvalidOwner",
      "type": "error"
    },
    {
      "inputs": [
        {
          "internalType": "address",
          "name": "account",
          "type": "address"
        }
      ],
      "name": "OwnableUnauthorizedAccount",
      "type": "error"
    },
    {
      "anonymous": false,
      "inputs": [
        {
          "indexed": true,
          "internalType": "address",
          "name": "owner",
          "type": "address"
        },
        {
          "indexed": true,
          "internalType": "address",
          "name": "approved",
          "type": "address"
        },
        {
          "indexed": true,
          "internalType": "uint256",
          "name": "tokenId",
          "type": "uint256"
        }
      ],
      "name": "Approval",
      "type": "event"
    },
    {
      "anonymous": false,
      "inputs": [
        {
          "indexed": true,
          "internalType": "address",
          "name": "owner",
          "type": "address"
        },
        {
          "indexed": true,
          "internalType": "address",
          "name": "operator",
          "type": "address"
        },
        {
          "indexed": false,
          "internalType": "bool",
          "name": "approved",
          "type": "bool"
        }
      ],
      "name": "ApprovalForAll",
      "type": "event"
    },
    {
      "anonymous": false,
      "inputs": [
        {
          "indexed": false,
          "internalType": "uint256",
          "name": "_fromTokenId",
          "type": "uint256"
        },
        {
          "indexed": false,
          "internalType": "uint256",
          "name": "_toTokenId",
          "type": "uint256"
        }
      ],
      "name": "BatchMetadataUpdate",
      "type": "event"
    },
    {
      "anonymous": false,
      "inputs": [
        {
          "indexed": false,
          "internalType": "uint256",
          "name": "_tokenId",
          "type": "uint256"
        }
      ],
      "name": "MetadataUpdate",
      "type": "event"
    },
    {
      "anonymous": false,
      "inputs": [
        {
          "indexed": true,
          "internalType": "address",
          "name": "previousOwner",
          "type": "address"
        },
        {
          "indexed": true,
          "internalType": "address",
          "name": "newOwner",
          "type": "address"
        }
      ],
      "name": "OwnershipTransferred",
      "type": "event"
    },
    {
      "anonymous": false,
      "inputs": [
        {
          "indexed": true,
          "internalType": "address",
          "name": "from",
          "type": "address"
        },
        {
          "indexed": true,
          "internalType": "address",
          "name": "to",
          "type": "address"
        },
        {
          "indexed": true,
          "internalType": "uint256",
          "name": "tokenId",
          "type": "uint256"
        }
      ],
      "name": "Transfer",
      "type": "event"
    },
    {
      "inputs": [
        {
          "internalType": "address",
          "name": "to",
          "type": "address"
        },
        {
          "internalType": "uint256",
          "name": "tokenId",
          "type": "uint256"
        }
      ],
      "name": "approve",
      "outputs": [],
      "stateMutability": "nonpayable",
      "type": "function"
    },
    {
      "inputs": [
        {
          "internalType": "address",
          "name": "owner",
          "type": "address"
        }
      ],
      "name": "balanceOf",
      "outputs": [
        {
          "internalType": "uint256",
          "name": "",
          "type": "uint256"
        }
      ],
      "stateMutability": "view",
      "type": "function"
    },
    {
      "inputs": [
        {
          "internalType": "uint256",
          "name": "tokenId",
          "type": "uint256"
        }
      ],
      "name": "getApproved",
      "outputs": [
        {
          "internalType": "address",
          "name": "",
          "type": "address"
        }
      ],
      "stateMutability": "view",
      "type": "function"
    },
    {
      "inputs": [
        {
          "internalType": "address",
          "name": "owner",
          "type": "address"
        },
        {
          "internalType": "address",
          "name": "operator",
          "type": "address"
        }
      ],
      "name": "isApprovedForAll",
      "outputs": [
        {
          "internalType": "bool",
          "name": "",
          "type": "bool"
        }
      ],
      "stateMutability": "view",
      "type": "function"
    },
    {
      "inputs": [
        {
          "internalType": "address",
          "name": "recipient",
          "type": "address"
        },
        {
          "internalType": "string",
          "name": "tokenURI",
          "type": "string"
        }
      ],
      "name": "mintNFT",
      "outputs": [
        {
          "internalType": "uint256",
          "name": "",
          "type": "uint256"
        }
      ],
      "stateMutability": "nonpayable",
      "type": "function"
    },
    {
      "inputs": [],
      "name": "name",
      "outputs": [
        {
          "internalType": "string",
          "name": "",
          "type": "string"
        }
      ],
      "stateMutability": "view",
      "type": "function"
    },
    {
      "inputs": [],
      "name": "owner",
      "outputs": [
        {
          "internalType": "address",
          "name": "",
          "type": "address"
        }
      ],
      "stateMutability": "view",
      "type": "function"
    },
    {
      "inputs": [
        {
          "internalType": "uint256",
          "name": "tokenId",
          "type": "uint256"
        }
      ],
      "name": "ownerOf",
      "outputs": [
        {
          "internalType": "address",
          "name": "",
          "type": "address"
        }
      ],
      "stateMutability": "view",
      "type": "function"
    },
    {
      "inputs": [],
      "name": "renounceOwnership",
      "outputs": [],
      "stateMutability": "nonpayable",
      "type": "function"
    },
    {
      "inputs": [
        {
          "internalType": "address",
          "name": "from",
          "type": "address"
        },
        {
          "internalType": "address",
          "name": "to",
          "type": "address"
        },
        {
          "internalType": "uint256",
          "name": "tokenId",
          "type": "uint256"
        }
      ],
      "name": "safeTransferFrom",
      "outputs": [],
      "stateMutability": "nonpayable",
      "type": "function"
    },
    {
      "inputs": [
        {
          "internalType": "address",
          "name": "from",
          "type": "address"
        },
        {
          "internalType": "address",
          "name": "to",
          "type": "address"
        },
        {
          "internalType": "uint256",
          "name": "tokenId",
          "type": "uint256"
        },
        {
          "internalType": "bytes",
          "name": "data",
          "type": "bytes"
        }
      ],
      "name": "safeTransferFrom",
      "outputs": [],
      "stateMutability": "nonpayable",
      "type": "function"
    },
    {
      "inputs": [
        {
          "internalType": "address",
          "name": "operator",
          "type": "address"
        },
        {
          "internalType": "bool",
          "name": "approved",
          "type": "bool"
        }
      ],
      "name": "setApprovalForAll",
      "outputs": [],
      "stateMutability": "nonpayable",
      "type": "function"
    },
    {
      "inputs": [
        {
          "internalType": "bytes4",
          "name": "interfaceId",
          "type": "bytes4"
        }
      ],
      "name": "supportsInterface",
      "outputs": [
        {
          "internalType": "bool",
          "name": "",
          "type": "bool"
        }
      ],
      "stateMutability": "view",
      "type": "function"
    },
    {
      "inputs": [],
      "name": "symbol",
      "outputs": [
        {
          "internalType": "string",
          "name": "",
          "type": "string"
        }
      ],
      "stateMutability": "view",
      "type": "function"
    },
    {
      "inputs": [],
      "name": "tokenCounter",
      "outputs": [
        {
          "internalType": "uint256",
          "name": "",
          "type": "uint256"
        }
      ],
      "stateMutability": "view",
      "type": "function"
    },
    {
      "inputs": [
        {
          "internalType": "uint256",
          "name": "tokenId",
          "type": "uint256"
        }
      ],
      "name": "tokenURI",
      "outputs": [
        {
          "internalType": "string",
          "name": "",
          "type": "string"
        }
      ],
      "stateMutability": "view",
      "type": "function"
    },
    {
      "inputs": [
        {
          "internalType": "address",
          "name": "from",
          "type": "address"
        },
        {
          "internalType": "address",
          "name": "to",
          "type": "address"
        },
        {
          "internalType": "uint256",
          "name": "tokenId",
          "type": "uint256"
        }
      ],
      "name": "transferFrom",
      "outputs": [],
      "stateMutability": "nonpayable",
      "type": "function"
    },
    {
      "inputs": [
        {
          "internalType": "address",
          "name": "newOwner",
          "type": "address"
        }
      ],
      "name": "transferOwnership",
      "outputs": [],
      "stateMutability": "nonpayable",
      "type": "function"
    }
  ],
  "bytecode": "0x608060405234801561001057600080fd5b5073dff8af062dffeebaebe88066ff1b1045070372a16040518060400160405280600581526020017f4d794e46540000000000000000000000000000000000000000000000000000008152506040518060400160405280600481526020017f4d4e46540000000000000000000000000000000000000000000000000000000081525081600090816100a19190610459565b5080600190816100b19190610459565b505050600073ffffffffffffffffffffffffffffffffffffffff168173ffffffffffffffffffffffffffffffffffffffff16036101265760006040517f1e4fbdf700000000000000000000000000000000000000000000000000000000815260040161011d919061056c565b60405180910390fd5b6101358161014360201b60201c565b506000600881905550610587565b6000600760009054906101000a900473ffffffffffffffffffffffffffffffffffffffff16905081600760006101000a81548173ffffffffffffffffffffffffffffffffffffffff021916908373ffffffffffffffffffffffffffffffffffffffff1602179055508173ffffffffffffffffffffffffffffffffffffffff168173ffffffffffffffffffffffffffffffffffffffff167f8be0079c531659141344cd1fd0a4f28419497f9722a3daafe3b4186f6b6457e060405160405180910390a35050565b600081519050919050565b7f4e487b7100000000000000000000000000000000000000000000000000000000600052604160045260246000fd5b7f4e487b7100000000000000000000000000000000000000000000000000000000600052602260045260246000fd5b6000600282049050600182168061028a57607f821691505b60208210810361029d5761029c610243565b5b50919050565b60008190508160005260206000209050919050565b60006020601f8301049050919050565b600082821b905092915050565b6000600883026103057fffffffffffffffffffffffffffffffffffffffffffffffffffffffffffffffff826102c8565b61030f86836102c8565b95508019841693508086168417925050509392505050565b6000819050919050565b6000819050919050565b600061035661035161034c84610327565b610331565b610327565b9050919050565b6000819050919050565b6103708361033b565b61038461037c8261035d565b8484546102d5565b825550505050565b600090565b61039961038c565b6103a4818484610367565b505050565b5b818110156103c8576103bd600082610391565b6001810190506103aa565b5050565b601f82111561040d576103de816102a3565b6103e7846102b8565b810160208510156103f6578190505b61040a610402856102b8565b8301826103a9565b50505b505050565b600082821c905092915050565b600061043060001984600802610412565b1980831691505092915050565b6000610449838361041f565b9150826002028217905092915050565b61046282610209565b67ffffffffffffffff81111561047b5761047a610214565b5b6104858254610272565b6104908282856103cc565b600060209050601f8311600181146104c357600084156104b1578287015190505b6104bb858261043d565b865550610523565b601f1984166104d1866102a3565b60005b828110156104f9578489015182556001820191506020850194506020810190506104d4565b868310156105165784890151610512601f89168261041f565b8355505b6001600288020188555050505b505050505050565b600073ffffffffffffffffffffffffffffffffffffffff82169050919050565b60006105568261052b565b9050919050565b6105668161054b565b82525050565b6000602082019050610581600083018461055d565b92915050565b6126a8806105966000396000f3fe608060405234801561001057600080fd5b50600436106101165760003560e01c80638da5cb5b116100a2578063c87b56dd11610071578063c87b56dd146102cb578063d082e381146102fb578063e985e9c514610319578063eacabe1414610349578063f2fde38b1461037957610116565b80638da5cb5b1461025757806395d89b4114610275578063a22cb46514610293578063b88d4fde146102af57610116565b806323b872dd116100e957806323b872dd146101b557806342842e0e146101d15780636352211e146101ed57806370a082311461021d578063715018a61461024d57610116565b806301ffc9a71461011b57806306fdde031461014b578063081812fc14610169578063095ea7b314610199575b600080fd5b61013560048036038101906101309190611b00565b610395565b6040516101429190611b48565b60405180910390f35b6101536103f6565b6040516101609190611bf3565b60405180910390f35b610183600480360381019061017e9190611c4b565b610488565b6040516101909190611cb9565b60405180910390f35b6101b360048036038101906101ae9190611d00565b6104a4565b005b6101cf60048036038101906101ca9190611d40565b6104ba565b005b6101eb60048036038101906101e69190611d40565b6105bc565b005b61020760048036038101906102029190611c4b565b6105dc565b6040516102149190611cb9565b60405180910390f35b61023760048036038101906102329190611d93565b6105ee565b6040516102449190611dcf565b60405180910390f35b6102556106a8565b005b61025f6106bc565b60405161026c9190611cb9565b60405180910390f35b61027d6106e6565b60405161028a9190611bf3565b60405180910390f35b6102ad60048036038101906102a89190611e16565b610778565b005b6102c960048036038101906102c49190611f8b565b61078e565b005b6102e560048036038101906102e09190611c4b565b6107ab565b6040516102f29190611bf3565b60405180910390f35b6103036108be565b6040516103109190611dcf565b60405180910390f35b610333600480360381019061032e919061200e565b6108c4565b6040516103409190611b48565b60405180910390f35b610363600480360381019061035e91906120ef565b610958565b6040516103709190611dcf565b60405180910390f35b610393600480360381019061038e9190611d93565b61099f565b005b6000634906490660e01b7bffffffffffffffffffffffffffffffffffffffffffffffffffffffff1916827bffffffffffffffffffffffffffffffffffffffffffffffffffffffff191614806103ef57506103ee82610a25565b5b9050919050565b6060600080546104059061217a565b80601f01602080910402602001604051908101604052809291908181526020018280546104319061217a565b801561047e5780601f106104535761010080835404028352916020019161047e565b820191906000526020600020905b81548152906001019060200180831161046157829003601f168201915b5050505050905090565b600061049382610b07565b5061049d82610b8f565b9050919050565b6104b682826104b1610bcc565b610bd4565b5050565b600073ffffffffffffffffffffffffffffffffffffffff168273ffffffffffffffffffffffffffffffffffffffff160361052c5760006040517f64a0ae920000000000000000000000000000000000000000000000000000000081526004016105239190611cb9565b60405180910390fd5b6000610540838361053b610bcc565b610be6565b90508373ffffffffffffffffffffffffffffffffffffffff168173ffffffffffffffffffffffffffffffffffffffff16146105b6578382826040517f64283d7b0000000000000000000000000000000000000000000000000000000081526004016105ad939291906121ab565b60405180910390fd5b50505050565b6105d78383836040518060200160405280600081525061078e565b505050565b60006105e782610b07565b9050919050565b60008073ffffffffffffffffffffffffffffffffffffffff168273ffffffffffffffffffffffffffffffffffffffff16036106615760006040517f89c62b640000000000000000000000000000000000000000000000000000000081526004016106589190611cb9565b60405180910390fd5b600360008373ffffffffffffffffffffffffffffffffffffffff1673ffffffffffffffffffffffffffffffffffffffff168152602001908152602001600020549050919050565b6106b0610e00565b6106ba6000610e87565b565b6000600760009054906101000a900473ffffffffffffffffffffffffffffffffffffffff16905090565b6060600180546106f59061217a565b80601f01602080910402602001604051908101604052809291908181526020018280546107219061217a565b801561076e5780601f106107435761010080835404028352916020019161076e565b820191906000526020600020905b81548152906001019060200180831161075157829003601f168201915b5050505050905090565b61078a610783610bcc565b8383610f4d565b5050565b6107998484846104ba565b6107a5848484846110bc565b50505050565b60606107b682610b07565b5060006006600084815260200190815260200160002080546107d79061217a565b80601f01602080910402602001604051908101604052809291908181526020018280546108039061217a565b80156108505780601f1061082557610100808354040283529160200191610850565b820191906000526020600020905b81548152906001019060200180831161083357829003601f168201915b505050505090506000610861611273565b905060008151036108765781925050506108b9565b6000825111156108ab57808260405160200161089392919061221e565b604051602081830303815290604052925050506108b9565b6108b48461128a565b925050505b919050565b60085481565b6000600560008473ffffffffffffffffffffffffffffffffffffffff1673ffffffffffffffffffffffffffffffffffffffff16815260200190815260200160002060008373ffffffffffffffffffffffffffffffffffffffff1673ffffffffffffffffffffffffffffffffffffffff16815260200190815260200160002060009054906101000a900460ff16905092915050565b6000610962610e00565b6000600854905061097384826112f3565b61097d8184611311565b6008600081548092919061099090612271565b91905055508091505092915050565b6109a7610e00565b600073ffffffffffffffffffffffffffffffffffffffff168173ffffffffffffffffffffffffffffffffffffffff1603610a195760006040517f1e4fbdf7000000000000000000000000000000000000000000000000000000008152600401610a109190611cb9565b60405180910390fd5b610a2281610e87565b50565b60007f80ac58cd000000000000000000000000000000000000000000000000000000007bffffffffffffffffffffffffffffffffffffffffffffffffffffffff1916827bffffffffffffffffffffffffffffffffffffffffffffffffffffffff19161480610af057507f5b5e139f000000000000000000000000000000000000000000000000000000007bffffffffffffffffffffffffffffffffffffffffffffffffffffffff1916827bffffffffffffffffffffffffffffffffffffffffffffffffffffffff1916145b80610b005750610aff8261136d565b5b9050919050565b600080610b13836113d7565b9050600073ffffffffffffffffffffffffffffffffffffffff168173ffffffffffffffffffffffffffffffffffffffff1603610b8657826040517f7e273289000000000000000000000000000000000000000000000000000000008152600401610b7d9190611dcf565b60405180910390fd5b80915050919050565b60006004600083815260200190815260200160002060009054906101000a900473ffffffffffffffffffffffffffffffffffffffff169050919050565b600033905090565b610be18383836001611414565b505050565b600080610bf2846113d7565b9050600073ffffffffffffffffffffffffffffffffffffffff168373ffffffffffffffffffffffffffffffffffffffff1614610c3457610c338184866115d9565b5b600073ffffffffffffffffffffffffffffffffffffffff168173ffffffffffffffffffffffffffffffffffffffff1614610cc557610c76600085600080611414565b6001600360008373ffffffffffffffffffffffffffffffffffffffff1673ffffffffffffffffffffffffffffffffffffffff168152602001908152602001600020600082825403925050819055505b600073ffffffffffffffffffffffffffffffffffffffff168573ffffffffffffffffffffffffffffffffffffffff1614610d48576001600360008773ffffffffffffffffffffffffffffffffffffffff1673ffffffffffffffffffffffffffffffffffffffff168152602001908152602001600020600082825401925050819055505b846002600086815260200190815260200160002060006101000a81548173ffffffffffffffffffffffffffffffffffffffff021916908373ffffffffffffffffffffffffffffffffffffffff160217905550838573ffffffffffffffffffffffffffffffffffffffff168273ffffffffffffffffffffffffffffffffffffffff167fddf252ad1be2c89b69c2b068fc378daa952ba7f163c4a11628f55a4df523b3ef60405160405180910390a4809150509392505050565b610e08610bcc565b73ffffffffffffffffffffffffffffffffffffffff16610e266106bc565b73ffffffffffffffffffffffffffffffffffffffff1614610e8557610e49610bcc565b6040517f118cdaa7000000000000000000000000000000000000000000000000000000008152600401610e7c9190611cb9565b60405180910390fd5b565b6000600760009054906101000a900473ffffffffffffffffffffffffffffffffffffffff16905081600760006101000a81548173ffffffffffffffffffffffffffffffffffffffff021916908373ffffffffffffffffffffffffffffffffffffffff1602179055508173ffffffffffffffffffffffffffffffffffffffff168173ffffffffffffffffffffffffffffffffffffffff167f8be0079c531659141344cd1fd0a4f28419497f9722a3daafe3b4186f6b6457e060405160405180910390a35050565b600073ffffffffffffffffffffffffffffffffffffffff168273ffffffffffffffffffffffffffffffffffffffff1603610fbe57816040517f5b08ba18000000000000000000000000000000000000000000000000000000008152600401610fb59190611cb9565b60405180910390fd5b80600560008573ffffffffffffffffffffffffffffffffffffffff1673ffffffffffffffffffffffffffffffffffffffff16815260200190815260200160002060008473ffffffffffffffffffffffffffffffffffffffff1673ffffffffffffffffffffffffffffffffffffffff16815260200190815260200160002060006101000a81548160ff0219169083151502179055508173ffffffffffffffffffffffffffffffffffffffff168373ffffffffffffffffffffffffffffffffffffffff167f17307eab39ab6107e8899845ad3d59bd9653f200f220920489ca2b5937696c31836040516110af9190611b48565b60405180910390a3505050565b60008373ffffffffffffffffffffffffffffffffffffffff163b111561126d578273ffffffffffffffffffffffffffffffffffffffff1663150b7a02611100610bcc565b8685856040518563ffffffff1660e01b8152600401611122949392919061230e565b6020604051808303816000875af192505050801561115e57506040513d601f19601f8201168201806040525081019061115b919061236f565b60015b6111e2573d806000811461118e576040519150601f19603f3d011682016040523d82523d6000602084013e611193565b606091505b5060008151036111da57836040517f64a0ae920000000000000000000000000000000000000000000000000000000081526004016111d19190611cb9565b60405180910390fd5b805181602001fd5b63150b7a0260e01b7bffffffffffffffffffffffffffffffffffffffffffffffffffffffff1916817bffffffffffffffffffffffffffffffffffffffffffffffffffffffff19161461126b57836040517f64a0ae920000000000000000000000000000000000000000000000000000000081526004016112629190611cb9565b60405180910390fd5b505b50505050565b606060405180602001604052806000815250905090565b606061129582610b07565b5060006112a0611273565b905060008151116112c057604051806020016040528060008152506112eb565b806112ca8461169d565b6040516020016112db92919061221e565b6040516020818303038152906040525b915050919050565b61130d82826040518060200160405280600081525061176b565b5050565b806006600084815260200190815260200160002090816113319190612548565b507ff8e1a15aba9398e019f0b49df1a4fde98ee17ae345cb5f6b5e2c27f5033e8ce7826040516113619190611dcf565b60405180910390a15050565b60007f01ffc9a7000000000000000000000000000000000000000000000000000000007bffffffffffffffffffffffffffffffffffffffffffffffffffffffff1916827bffffffffffffffffffffffffffffffffffffffffffffffffffffffff1916149050919050565b60006002600083815260200190815260200160002060009054906101000a900473ffffffffffffffffffffffffffffffffffffffff169050919050565b808061144d5750600073ffffffffffffffffffffffffffffffffffffffff168273ffffffffffffffffffffffffffffffffffffffff1614155b1561158157600061145d84610b07565b9050600073ffffffffffffffffffffffffffffffffffffffff168373ffffffffffffffffffffffffffffffffffffffff16141580156114c857508273ffffffffffffffffffffffffffffffffffffffff168173ffffffffffffffffffffffffffffffffffffffff1614155b80156114db57506114d981846108c4565b155b1561151d57826040517fa9fbf51f0000000000000000000000000000000000000000000000000000000081526004016115149190611cb9565b60405180910390fd5b811561157f57838573ffffffffffffffffffffffffffffffffffffffff168273ffffffffffffffffffffffffffffffffffffffff167f8c5be1e5ebec7d5bd14f71427d1e84f3dd0314c0f7b2291e5b200ac8c7c3b92560405160405180910390a45b505b836004600085815260200190815260200160002060006101000a81548173ffffffffffffffffffffffffffffffffffffffff021916908373ffffffffffffffffffffffffffffffffffffffff16021790555050505050565b6115e4838383611787565b61169857600073ffffffffffffffffffffffffffffffffffffffff168373ffffffffffffffffffffffffffffffffffffffff160361165957806040517f7e2732890000000000000000000000000000000000000000000000000000000081526004016116509190611dcf565b60405180910390fd5b81816040517f177e802f00000000000000000000000000000000000000000000000000000000815260040161168f92919061261a565b60405180910390fd5b505050565b6060600060016116ac84611848565b01905060008167ffffffffffffffff8111156116cb576116ca611e60565b5b6040519080825280601f01601f1916602001820160405280156116fd5781602001600182028036833780820191505090505b509050600082602001820190505b600115611760578080600190039150507f3031323334353637383961626364656600000000000000000000000000000000600a86061a8153600a858161175457611753612643565b5b0494506000850361170b575b819350505050919050565b611775838361199b565b61178260008484846110bc565b505050565b60008073ffffffffffffffffffffffffffffffffffffffff168373ffffffffffffffffffffffffffffffffffffffff161415801561183f57508273ffffffffffffffffffffffffffffffffffffffff168473ffffffffffffffffffffffffffffffffffffffff16148061180057506117ff84846108c4565b5b8061183e57508273ffffffffffffffffffffffffffffffffffffffff1661182683610b8f565b73ffffffffffffffffffffffffffffffffffffffff16145b5b90509392505050565b600080600090507a184f03e93ff9f4daa797ed6e38ed64bf6a1f01000000000000000083106118a6577a184f03e93ff9f4daa797ed6e38ed64bf6a1f010000000000000000838161189c5761189b612643565b5b0492506040810190505b6d04ee2d6d415b85acef810000000083106118e3576d04ee2d6d415b85acef810000000083816118d9576118d8612643565b5b0492506020810190505b662386f26fc10000831061191257662386f26fc10000838161190857611907612643565b5b0492506010810190505b6305f5e100831061193b576305f5e100838161193157611930612643565b5b0492506008810190505b612710831061196057612710838161195657611955612643565b5b0492506004810190505b60648310611983576064838161197957611978612643565b5b0492506002810190505b600a8310611992576001810190505b80915050919050565b600073ffffffffffffffffffffffffffffffffffffffff168273ffffffffffffffffffffffffffffffffffffffff1603611a0d5760006040517f64a0ae92000000000000000000000000000000000000000000000000000000008152600401611a049190611cb9565b60405180910390fd5b6000611a1b83836000610be6565b9050600073ffffffffffffffffffffffffffffffffffffffff168173ffffffffffffffffffffffffffffffffffffffff1614611a8f5760006040517f73c6ac6e000000000000000000000000000000000000000000000000000000008152600401611a869190611cb9565b60405180910390fd5b505050565b6000604051905090565b600080fd5b600080fd5b60007fffffffff0000000000000000000000000000000000000000000000000000000082169050919050565b611add81611aa8565b8114611ae857600080fd5b50565b600081359050611afa81611ad4565b92915050565b600060208284031215611b1657611b15611a9e565b5b6000611b2484828501611aeb565b91505092915050565b60008115159050919050565b611b4281611b2d565b82525050565b6000602082019050611b5d6000830184611b39565b92915050565b600081519050919050565b600082825260208201905092915050565b60005b83811015611b9d578082015181840152602081019050611b82565b60008484015250505050565b6000601f19601f8301169050919050565b6000611bc582611b63565b611bcf8185611b6e565b9350611bdf818560208601611b7f565b611be881611ba9565b840191505092915050565b60006020820190508181036000830152611c0d8184611bba565b905092915050565b6000819050919050565b611c2881611c15565b8114611c3357600080fd5b50565b600081359050611c4581611c1f565b92915050565b600060208284031215611c6157611c60611a9e565b5b6000611c6f84828501611c36565b91505092915050565b600073ffffffffffffffffffffffffffffffffffffffff82169050919050565b6000611ca382611c78565b9050919050565b611cb381611c98565b82525050565b6000602082019050611cce6000830184611caa565b92915050565b611cdd81611c98565b8114611ce857600080fd5b50565b600081359050611cfa81611cd4565b92915050565b60008060408385031215611d1757611d16611a9e565b5b6000611d2585828601611ceb565b9250506020611d3685828601611c36565b9150509250929050565b600080600060608486031215611d5957611d58611a9e565b5b6000611d6786828701611ceb565b9350506020611d7886828701611ceb565b9250506040611d8986828701611c36565b9150509250925092565b600060208284031215611da957611da8611a9e565b5b6000611db784828501611ceb565b91505092915050565b611dc981611c15565b82525050565b6000602082019050611de46000830184611dc0565b92915050565b611df381611b2d565b8114611dfe57600080fd5b50565b600081359050611e1081611dea565b92915050565b60008060408385031215611e2d57611e2c611a9e565b5b6000611e3b85828601611ceb565b9250506020611e4c85828601611e01565b9150509250929050565b600080fd5b600080fd5b7f4e487b7100000000000000000000000000000000000000000000000000000000600052604160045260246000fd5b611e9882611ba9565b810181811067ffffffffffffffff82111715611eb757611eb6611e60565b5b80604052505050565b6000611eca611a94565b9050611ed68282611e8f565b919050565b600067ffffffffffffffff821115611ef657611ef5611e60565b5b611eff82611ba9565b9050602081019050919050565b82818337600083830152505050565b6000611f2e611f2984611edb565b611ec0565b905082815260208101848484011115611f4a57611f49611e5b565b5b611f55848285611f0c565b509392505050565b600082601f830112611f7257611f71611e56565b5b8135611f82848260208601611f1b565b91505092915050565b60008060008060808587031215611fa557611fa4611a9e565b5b6000611fb387828801611ceb565b9450506020611fc487828801611ceb565b9350506040611fd587828801611c36565b925050606085013567ffffffffffffffff811115611ff657611ff5611aa3565b5b61200287828801611f5d565b91505092959194509250565b6000806040838503121561202557612024611a9e565b5b600061203385828601611ceb565b925050602061204485828601611ceb565b9150509250929050565b600067ffffffffffffffff82111561206957612068611e60565b5b61207282611ba9565b9050602081019050919050565b600061209261208d8461204e565b611ec0565b9050828152602081018484840111156120ae576120ad611e5b565b5b6120b9848285611f0c565b509392505050565b600082601f8301126120d6576120d5611e56565b5b81356120e684826020860161207f565b91505092915050565b6000806040838503121561210657612105611a9e565b5b600061211485828601611ceb565b925050602083013567ffffffffffffffff81111561213557612134611aa3565b5b612141858286016120c1565b9150509250929050565b7f4e487b7100000000000000000000000000000000000000000000000000000000600052602260045260246000fd5b6000600282049050600182168061219257607f821691505b6020821081036121a5576121a461214b565b5b50919050565b60006060820190506121c06000830186611caa565b6121cd6020830185611dc0565b6121da6040830184611caa565b949350505050565b600081905092915050565b60006121f882611b63565b61220281856121e2565b9350612212818560208601611b7f565b80840191505092915050565b600061222a82856121ed565b915061223682846121ed565b91508190509392505050565b7f4e487b7100000000000000000000000000000000000000000000000000000000600052601160045260246000fd5b600061227c82611c15565b91507fffffffffffffffffffffffffffffffffffffffffffffffffffffffffffffffff82036122ae576122ad612242565b5b600182019050919050565b600081519050919050565b600082825260208201905092915050565b60006122e0826122b9565b6122ea81856122c4565b93506122fa818560208601611b7f565b61230381611ba9565b840191505092915050565b60006080820190506123236000830187611caa565b6123306020830186611caa565b61233d6040830185611dc0565b818103606083015261234f81846122d5565b905095945050505050565b60008151905061236981611ad4565b92915050565b60006020828403121561238557612384611a9e565b5b60006123938482850161235a565b91505092915050565b60008190508160005260206000209050919050565b60006020601f8301049050919050565b600082821b905092915050565b6000600883026123fe7fffffffffffffffffffffffffffffffffffffffffffffffffffffffffffffffff826123c1565b61240886836123c1565b95508019841693508086168417925050509392505050565b6000819050919050565b600061244561244061243b84611c15565b612420565b611c15565b9050919050565b6000819050919050565b61245f8361242a565b61247361246b8261244c565b8484546123ce565b825550505050565b600090565b61248861247b565b612493818484612456565b505050565b5b818110156124b7576124ac600082612480565b600181019050612499565b5050565b601f8211156124fc576124cd8161239c565b6124d6846123b1565b810160208510156124e5578190505b6124f96124f1856123b1565b830182612498565b50505b505050565b600082821c905092915050565b600061251f60001984600802612501565b1980831691505092915050565b6000612538838361250e565b9150826002028217905092915050565b61255182611b63565b67ffffffffffffffff81111561256a57612569611e60565b5b612574825461217a565b61257f8282856124bb565b600060209050601f8311600181146125b257600084156125a0578287015190505b6125aa858261252c565b865550612612565b601f1984166125c08661239c565b60005b828110156125e8578489015182556001820191506020850194506020810190506125c3565b868310156126055784890151612601601f89168261250e565b8355505b6001600288020188555050505b505050505050565b600060408201905061262f6000830185611caa565b61263c6020830184611dc0565b9392505050565b7f4e487b7100000000000000000000000000000000000000000000000000000000600052601260045260246000fdfea2646970667358221220a688493e2a40b6e9702e9d473c2c5041c14111062d23d8ade999db669aa916fc64736f6c634300081b0033",
  "linkReferences": {},
  "deployedLinkReferences": {}
}