{
    "_format": "hh-sol-artifact-1",
    "contractName": "ImageStorage",
    "sourceName": "contracts/ImageStorage.sol",
    "abi": [
        {
            "anonymous": false,
            "inputs": [
                {
                    "indexed": true,
                    "internalType": "address",
                    "name": "owner",
                    "type": "address"
                },
                {
                    "indexed": false,
                    "internalType": "string",
                    "name": "ipfsHash",
                    "type": "string"
                }
            ],
            "name": "ImageStored",
            "type": "event"
        },
        {
            "inputs": [
                {
                    "internalType": "uint256",
                    "name": "_id",
                    "type": "uint256"
                }
            ],
            "name": "getImage",
            "outputs": [
                {
                    "internalType": "address",
                    "name": "",
                    "type": "address"
                },
                {
                    "internalType": "string",
                    "name": "",
                    "type": "string"
                }
            ],
            "stateMutability": "view",
            "type": "function"
        },
        {
            "inputs": [],
            "name": "imageCount",
            "outputs": [
                {
                    "internalType": "uint256",
                    "name": "",
                    "type": "uint256"
                }
            ],
            "stateMutability": "view",
            "type": "function"
        },
        {
            "inputs": [
                {
                    "internalType": "uint256",
                    "name": "",
                    "type": "uint256"
                }
            ],
            "name": "images",
            "outputs": [
                {
                    "internalType": "address",
                    "name": "owner",
                    "type": "address"
                },
                {
                    "internalType": "string",
                    "name": "ipfsHash",
                    "type": "string"
                }
            ],
            "stateMutability": "view",
            "type": "function"
        },
        {
            "inputs": [
                {
                    "internalType": "string",
                    "name": "_ipfsHash",
                    "type": "string"
                }
            ],
            "name": "storeImage",
            "outputs": [],
            "stateMutability": "nonpayable",
            "type": "function"
        }
    ],
    "bytecode": "0x6080604052348015600f57600080fd5b50610ab58061001f6000396000f3fe608060405234801561001057600080fd5b506004361061004c5760003560e01c80632607aafa14610051578063848564821461008257806392053b63146100b3578063b75840b7146100d1575b600080fd5b61006b60048036038101906100669190610432565b6100ed565b604051610079929190610530565b60405180910390f35b61009c60048036038101906100979190610432565b61020e565b6040516100aa929190610530565b60405180910390f35b6100bb6102da565b6040516100c8919061056f565b60405180910390f35b6100eb60048036038101906100e691906106bf565b6102e0565b005b6000606060008060008581526020019081526020016000206040518060400160405290816000820160009054906101000a900473ffffffffffffffffffffffffffffffffffffffff1673ffffffffffffffffffffffffffffffffffffffff1673ffffffffffffffffffffffffffffffffffffffff16815260200160018201805461017690610737565b80601f01602080910402602001604051908101604052809291908181526020018280546101a290610737565b80156101ef5780601f106101c4576101008083540402835291602001916101ef565b820191906000526020600020905b8154815290600101906020018083116101d257829003601f168201915b5050505050815250509050806000015181602001519250925050915091565b60006020528060005260406000206000915090508060000160009054906101000a900473ffffffffffffffffffffffffffffffffffffffff169080600101805461025790610737565b80601f016020809104026020016040519081016040528092919081815260200182805461028390610737565b80156102d05780601f106102a5576101008083540402835291602001916102d0565b820191906000526020600020905b8154815290600101906020018083116102b357829003601f168201915b5050505050905082565b60015481565b60405180604001604052803373ffffffffffffffffffffffffffffffffffffffff16815260200182815250600080600154815260200190815260200160002060008201518160000160006101000a81548173ffffffffffffffffffffffffffffffffffffffff021916908373ffffffffffffffffffffffffffffffffffffffff160217905550602082015181600101908161037b9190610914565b509050503373ffffffffffffffffffffffffffffffffffffffff167f65620063b5448d8896268e0ba33c4c3e90f83318a6913967b0bb878e944d8e76826040516103c591906109e6565b60405180910390a2600160008154809291906103e090610a37565b919050555050565b6000604051905090565b600080fd5b600080fd5b6000819050919050565b61040f816103fc565b811461041a57600080fd5b50565b60008135905061042c81610406565b92915050565b600060208284031215610448576104476103f2565b5b60006104568482850161041d565b91505092915050565b600073ffffffffffffffffffffffffffffffffffffffff82169050919050565b600061048a8261045f565b9050919050565b61049a8161047f565b82525050565b600081519050919050565b600082825260208201905092915050565b60005b838110156104da5780820151818401526020810190506104bf565b60008484015250505050565b6000601f19601f8301169050919050565b6000610502826104a0565b61050c81856104ab565b935061051c8185602086016104bc565b610525816104e6565b840191505092915050565b60006040820190506105456000830185610491565b818103602083015261055781846104f7565b90509392505050565b610569816103fc565b82525050565b60006020820190506105846000830184610560565b92915050565b600080fd5b600080fd5b7f4e487b7100000000000000000000000000000000000000000000000000000000600052604160045260246000fd5b6105cc826104e6565b810181811067ffffffffffffffff821117156105eb576105ea610594565b5b80604052505050565b60006105fe6103e8565b905061060a82826105c3565b919050565b600067ffffffffffffffff82111561062a57610629610594565b5b610633826104e6565b9050602081019050919050565b82818337600083830152505050565b600061066261065d8461060f565b6105f4565b90508281526020810184848401111561067e5761067d61058f565b5b610689848285610640565b509392505050565b600082601f8301126106a6576106a561058a565b5b81356106b684826020860161064f565b91505092915050565b6000602082840312156106d5576106d46103f2565b5b600082013567ffffffffffffffff8111156106f3576106f26103f7565b5b6106ff84828501610691565b91505092915050565b7f4e487b7100000000000000000000000000000000000000000000000000000000600052602260045260246000fd5b6000600282049050600182168061074f57607f821691505b60208210810361076257610761610708565b5b50919050565b60008190508160005260206000209050919050565b60006020601f8301049050919050565b600082821b905092915050565b6000600883026107ca7fffffffffffffffffffffffffffffffffffffffffffffffffffffffffffffffff8261078d565b6107d4868361078d565b95508019841693508086168417925050509392505050565b6000819050919050565b600061081161080c610807846103fc565b6107ec565b6103fc565b9050919050565b6000819050919050565b61082b836107f6565b61083f61083782610818565b84845461079a565b825550505050565b600090565b610854610847565b61085f818484610822565b505050565b5b818110156108835761087860008261084c565b600181019050610865565b5050565b601f8211156108c85761089981610768565b6108a28461077d565b810160208510156108b1578190505b6108c56108bd8561077d565b830182610864565b50505b505050565b600082821c905092915050565b60006108eb600019846008026108cd565b1980831691505092915050565b600061090483836108da565b9150826002028217905092915050565b61091d826104a0565b67ffffffffffffffff81111561093657610935610594565b5b6109408254610737565b61094b828285610887565b600060209050601f83116001811461097e576000841561096c578287015190505b61097685826108f8565b8655506109de565b601f19841661098c86610768565b60005b828110156109b45784890151825560018201915060208501945060208101905061098f565b868310156109d157848901516109cd601f8916826108da565b8355505b6001600288020188555050505b505050505050565b60006020820190508181036000830152610a0081846104f7565b905092915050565b7f4e487b7100000000000000000000000000000000000000000000000000000000600052601160045260246000fd5b6000610a42826103fc565b91507fffffffffffffffffffffffffffffffffffffffffffffffffffffffffffffffff8203610a7457610a73610a08565b5b60018201905091905056fea2646970667358221220e53019837be43822362ee1f7b44fb7ad288d0b7c6bd9f9b90a31fcaac567595364736f6c634300081b0033",
    "linkReferences": {},
    "deployedLinkReferences": {}
}