{
    "_format": "hh-sol-artifact-1",
    "contractName": "CryptoTransfer",
    "sourceName": "contracts/CryptoTransfer.sol",
    "abi": [
        {
            "anonymous": false,
            "inputs": [
                {
                    "indexed": true,
                    "internalType": "address",
                    "name": "from",
                    "type": "address"
                },
                {
                    "indexed": true,
                    "internalType": "address",
                    "name": "to",
                    "type": "address"
                },
                {
                    "indexed": false,
                    "internalType": "uint256",
                    "name": "amount",
                    "type": "uint256"
                }
            ],
            "name": "Transfer",
            "type": "event"
        },
        {
            "inputs": [
                {
                    "internalType": "address payable",
                    "name": "_to",
                    "type": "address"
                }
            ],
            "name": "transferFunds",
            "outputs": [],
            "stateMutability": "payable",
            "type": "function"
        }
    ],
    "bytecode": "0x6080604052348015600f57600080fd5b506102ce8061001f6000396000f3fe60806040526004361061001e5760003560e01c8063e39ff19f14610023575b600080fd5b61003d60048036038101906100389190610194565b61003f565b005b60003411610082576040517f08c379a000000000000000000000000000000000000000000000000000000000815260040161007990610244565b60405180910390fd5b8073ffffffffffffffffffffffffffffffffffffffff166108fc349081150290604051600060405180830381858888f193505050501580156100c8573d6000803e3d6000fd5b508073ffffffffffffffffffffffffffffffffffffffff163373ffffffffffffffffffffffffffffffffffffffff167fddf252ad1be2c89b69c2b068fc378daa952ba7f163c4a11628f55a4df523b3ef34604051610126919061027d565b60405180910390a350565b600080fd5b600073ffffffffffffffffffffffffffffffffffffffff82169050919050565b600061016182610136565b9050919050565b61017181610156565b811461017c57600080fd5b50565b60008135905061018e81610168565b92915050565b6000602082840312156101aa576101a9610131565b5b60006101b88482850161017f565b91505092915050565b600082825260208201905092915050565b7f5472616e7366657220616d6f756e74206d75737420626520677265617465722060008201527f7468616e207a65726f0000000000000000000000000000000000000000000000602082015250565b600061022e6029836101c1565b9150610239826101d2565b604082019050919050565b6000602082019050818103600083015261025d81610221565b9050919050565b6000819050919050565b61027781610264565b82525050565b6000602082019050610292600083018461026e565b9291505056fea26469706673582212206988b7531f2d7498cf2c45d27637c380a60e51c4988346114f267c17e9a702aa64736f6c634300081b0033",
    "linkReferences": {},
    "deployedLinkReferences": {}
}