{
    "_format": "hh-sol-artifact-1",
    "contractName": "Swap",
    "sourceName": "contracts/Swap.sol",
    "abi": [
        {
            "inputs": [
                {
                    "internalType": "contract IERC20",
                    "name": "_mockBTC",
                    "type": "address"
                }
            ],
            "stateMutability": "nonpayable",
            "type": "constructor"
        },
        {
            "inputs": [],
            "name": "mockBTC",
            "outputs": [
                {
                    "internalType": "contract IERC20",
                    "name": "",
                    "type": "address"
                }
            ],
            "stateMutability": "view",
            "type": "function"
        },
        {
            "inputs": [],
            "name": "rate",
            "outputs": [
                {
                    "internalType": "uint256",
                    "name": "",
                    "type": "uint256"
                }
            ],
            "stateMutability": "view",
            "type": "function"
        },
        {
            "inputs": [],
            "name": "swapEtherForMockBTC",
            "outputs": [],
            "stateMutability": "payable",
            "type": "function"
        }
    ],
    "bytecode": "0x6080604052606460015534801561001557600080fd5b5060405161069b38038061069b833981810160405281019061003791906100f2565b806000806101000a81548173ffffffffffffffffffffffffffffffffffffffff021916908373ffffffffffffffffffffffffffffffffffffffff1602179055505061011f565b600080fd5b600073ffffffffffffffffffffffffffffffffffffffff82169050919050565b60006100ad82610082565b9050919050565b60006100bf826100a2565b9050919050565b6100cf816100b4565b81146100da57600080fd5b50565b6000815190506100ec816100c6565b92915050565b6000602082840312156101085761010761007d565b5b6000610116848285016100dd565b91505092915050565b61056d8061012e6000396000f3fe6080604052600436106100345760003560e01c80632c4e722e1461003957806336a9054414610064578063cfebf06a1461008f575b600080fd5b34801561004557600080fd5b5061004e610099565b60405161005b919061026c565b60405180910390f35b34801561007057600080fd5b5061007961009f565b6040516100869190610306565b60405180910390f35b6100976100c3565b005b60015481565b60008054906101000a900473ffffffffffffffffffffffffffffffffffffffff1681565b6000600154346100d39190610350565b90508060008054906101000a900473ffffffffffffffffffffffffffffffffffffffff1673ffffffffffffffffffffffffffffffffffffffff166370a08231306040518263ffffffff1660e01b815260040161012f91906103b3565b602060405180830381865afa15801561014c573d6000803e3d6000fd5b505050506040513d601f19601f8201168201806040525081019061017091906103ff565b10156101b1576040517f08c379a00000000000000000000000000000000000000000000000000000000081526004016101a890610489565b60405180910390fd5b60008054906101000a900473ffffffffffffffffffffffffffffffffffffffff1673ffffffffffffffffffffffffffffffffffffffff1663a9059cbb33836040518363ffffffff1660e01b815260040161020c9291906104a9565b6020604051808303816000875af115801561022b573d6000803e3d6000fd5b505050506040513d601f19601f8201168201806040525081019061024f919061050a565b5050565b6000819050919050565b61026681610253565b82525050565b6000602082019050610281600083018461025d565b92915050565b600073ffffffffffffffffffffffffffffffffffffffff82169050919050565b6000819050919050565b60006102cc6102c76102c284610287565b6102a7565b610287565b9050919050565b60006102de826102b1565b9050919050565b60006102f0826102d3565b9050919050565b610300816102e5565b82525050565b600060208201905061031b60008301846102f7565b92915050565b7f4e487b7100000000000000000000000000000000000000000000000000000000600052601160045260246000fd5b600061035b82610253565b915061036683610253565b925082820261037481610253565b9150828204841483151761038b5761038a610321565b5b5092915050565b600061039d82610287565b9050919050565b6103ad81610392565b82525050565b60006020820190506103c860008301846103a4565b92915050565b600080fd5b6103dc81610253565b81146103e757600080fd5b50565b6000815190506103f9816103d3565b92915050565b600060208284031215610415576104146103ce565b5b6000610423848285016103ea565b91505092915050565b600082825260208201905092915050565b7f4e6f7420656e6f756768204d6f636b42544320696e20636f6e74726163740000600082015250565b6000610473601e8361042c565b915061047e8261043d565b602082019050919050565b600060208201905081810360008301526104a281610466565b9050919050565b60006040820190506104be60008301856103a4565b6104cb602083018461025d565b9392505050565b60008115159050919050565b6104e7816104d2565b81146104f257600080fd5b50565b600081519050610504816104de565b92915050565b6000602082840312156105205761051f6103ce565b5b600061052e848285016104f5565b9150509291505056fea26469706673582212205bf15d2cd5ec1869dc2a3a294b4517eecbabe58f2c9e7579671a4efe798321d564736f6c634300081b0033",
    "linkReferences": {},
    "deployedLinkReferences": {}
}